:020000040800F2
:10000000B81500206D060008750400087704000884
:100010007B0400087F04000883040008000000003F
:10002000000000000000000000000000870400083D
:100030008904000800000000830600088506000807
:10004000870600088706000887060008870600085C
:100050008706000887060008870600088B3200081C
:10006000870600088706000887060008870600083C
:10007000870600088706000887060008870600082C
:10008000870600088706000887060008870600081C
:10009000870600088706000887060008870600080C
:1000A00087060008870600088706000887060008FC
:1000B0008533000887060008000000008706000856
:1000C0008706000800000000000000008706000806
:1000D00000000000B12400088706000800000000AE
:1000E00087060008870600088706000800F002F867
:1000F00000F095F80AA090E8000C82448344AAF12D
:100100000107DA4501D100F08AF8AFF2090EBAE82A
:100110000F0013F0010F18BFFB1A43F0010318473B
:10012000C8650000E8650000103A24BF78C878C1AF
:10013000FAD8520724BF30C830C144BF04680C60ED
:10014000704700000023002400250026103A28BF35
:1001500078C1FBD8520728BF30C148BF0B60704739
:100160006E2904F07080702904F0D581662905F0AD
:10017000D585652905F0D285672905F0CF856129E8
:1001800005F0CE8503681B0A28BF41F0800169296C
:1001900003F07281642903F06F81752903F06C818B
:1001A0006F2904F06281782904F0A181E92904F023
:1001B000FD80E42904F0FA80F52904F0F780EF29A6
:1001C00004F05F81F82904F0A0810368DB0928BFEF
:1001D00041F08001632904F00D84732904F0128436
:1001E000E32904F01D84F32904F0228400207047E1
:1001F0001FB503F04DFC04000020002105F05EF85F
:10020000401C60600020002105F042F8E060002002
:10021000002105F027F820611FBD10B510BD04F0C6
:100220003BFA1146FFF7E4FF00F00CF804F024FC61
:1002300003B4FFF7F2FF03BC02F05EF880F3088816
:100240007047000090B00024202108A803F014FAA1
:100250000020049005900690079000900190029075
:1002600003908146824601F0AFFF4FF4A06000F09A
:100270001DFA4FF4E13002F04FF802F00FF803F0EE
:10028000BDF802F0B3FE02F0CBFF02F088FA47217E
:1002900041F2873003F048F8C7E04FF0804001F0AA
:1002A000DEFE49F6404188420EDB00205F490870BF
:1002B0005F49088000214FF0804001F019FC0021C7
:1002C0004FF0804001F0A8FE5A480078552835D1FB
:1002D000002058490870002407E0574830F81410EF
:1002E00056A003F0A7F8601C84B2534830F81400FD
:1002F0000028F2D153A003F09DF872B6002414E058
:10030000204604EBD0714910A4EB410119B900203B
:100310004D49086002E001204B490860464931F828
:10032000140001F06AFF601C84B2434830F81400E6
:100330000028E5D101204449086062B6BAF1050FF2
:1003400047DB4FF0000A4148008805F0FFF90746F7
:1003500000223F4B05F0A2F805462A460B463DA178
:1003600008A803F073F8022208A9002002F0B9FDE2
:100370003A48008805F0EAF905460022344B05F0BA
:100380008DF807463A460B4635A108A803F05EF8FB
:10039000022208A9002002F0AFFD3348016808A836
:1003A00003F00CF80A2208A904A803F08CF9022231
:1003B00004A9032002F0D8FD0A220DF12B016846A2
:1003C00003F081F902226946052002F0CDFD02F01A
:1003D000A9FAB9F11E0F03DB4FF0000902F08FFEFE
:1003E00014480078012803D012480078032811D15E
:1003F00000201049087000BF1C48006800F4E0604D
:100400001B490843001D19490860BFF34F8F00BF07
:1004100000BFFEE7642001F014FF09F1010000F0C5
:10042000FF090AF1010000F0FF0A36E73A00002058
:1004300038000020300000206E0C002025640D0ADA
:10044000000000000D0A00008081214234000020DD
:1004500000002440252E31665E4300003600002057
:10046000252E3166252500003C0000200CED00E023
:100470000000FA05704700BFFEE700BFFEE700BFBF
:10048000FEE700BFFEE77047704700000CB5002094
:10049000019000906C48006840F480306A49086020
:1004A00000BF6948006800F4003000900198401CCB
:1004B0000190009818B90198B0F5A06FF1D1624889
:1004C000006800F4003010B10120009001E000202D
:1004D00000900098012843D15C48006840F010006B
:1004E0005A4908600846006820F003000860084682
:1004F000006840F002000860534840685249486074
:100500000846406848600846406840F4806048609B
:100510000846406820F47C1048600846406840F473
:10052000E81048600846006840F08070086000BF2E
:100530004548006800F000700028F9D04248406843
:1005400020F00300404948600846406840F002003F
:10055000486000BF3C48406800F00C000828F9D112
:100560000CBD10B5FFF792FF10BD10B536480068FE
:1005700040F00100344908600846406834490840AA
:100580003149486008460068324908402E490860F1
:100590000846006820F4802008600846406820F47F
:1005A000FE0048604FF41F008860FFF7DAFF4FF04D
:1005B00000602949086010BD10B50021002000220C
:1005C000214B5B6803F00C0121B1042906D00829F6
:1005D00028D107E0214B224C236027E01F4B204C01
:1005E000236023E0184B5B6803F47010164B5B68C4
:1005F00003F48032022303EB904022B9194B4343AA
:10060000174C23600DE0104B5B6803F4003323B1FB
:10061000144B4343124C236003E0104B4343104CF4
:10062000236003E00D4B0E4C236000BF00BF064B60
:100630005B68C3F303130C4CE15C094B1B68CB40B4
:10064000074C236010BD0000001002400020024053
:100650000000FFF8FFFFF6FE08ED00E000127A0050
:100660000000002000093D000400002009488047E8
:1006700009480047FEE7FEE7FEE7FEE7FEE7FEE784
:10068000FEE7FEE7FEE7FEE704480549054A064B9C
:10069000704700006B050008ED000008B80F00204F
:1006A000B8150020B8110020B811002031490143CD
:1006B000314A1160704770B5002100230F22C478C1
:1006C00004B32D4C246804F4E064C4F5E064210A0A
:1006D000C1F10403CA40447804FA03F18478144059
:1006E00021430901254C0678A155047804F01F0523
:1006F0000124AC4005786D11AD0005F1E025C5F889
:10070000004109E0047804F01F050124AC401C4DB1
:100710000678761145F8264070BD1A4A0A40024311
:10072000154B1B1F1A60704739B1134A121D12680E
:100730000243114B1B1D1A6006E00F4A121D12687E
:1007400082430D4B1B1D1A607047042808D14FF0DF
:10075000E021096941F004014FF0E022116107E056
:100760004FF0E021096921F004014FF0E02211610E
:10077000704700000000FA050CED00E000E400E026
:1007800080E100E080FFFF1F10B50446CC488442A2
:1007900008D10121042000F02DFB0021042000F0ED
:1007A00029FB46E0C748844208D10121082000F017
:1007B00021FB0021082000F01DFB3AE0C2488442E2
:1007C00008D10121102000F015FB0021102000F0BD
:1007D00011FB2EE0BD48844208D10121202000F009
:1007E00009FB0021202000F005FB22E0B8488442EC
:1007F00008D10121402000F0FDFA0021402000F046
:10080000F9FA16E0B348844208D10121802000F0B3
:10081000F1FA0021802000F0EDFA0AE0AE488442AF
:1008200007D10121801500F0E5FA0021A01500F0A4
:10083000E1FA10BD10B50121084600F0DBFA0021F5
:10084000012000F0D7FA10BD2DE9F0410246002545
:100850000026002000230024002791F803C00CF09C
:100860000F0591F803C00CF0100CBCF1000F03D081
:1008700091F802C04CEA050591F800C0BCF1000FE8
:1008800031D0146800202BE04FF0010C0CFA00F37B
:10089000B1F800C00CEA03069E4220D183004FF05D
:1008A0000F0C0CFA03F7BC4305FA03FC4CEA0404F2
:1008B00091F803C0BCF1280F06D14FF0010C0CFADF
:1008C00000FCC2F814C00AE091F803C0BCF1480F64
:1008D00005D14FF0010C0CFA00FCC2F810C0401C0E
:1008E0000828D1D31460B1F800C0BCF1FF0F34DD8B
:1008F000546800202EE000F1080C4FF0010808FABF
:100900000CF3B1F800C00CEA03069E4221D183002B
:100910004FF00F0C0CFA03F7BC4305FA03FC4CEA4A
:10092000040491F803C0BCF1280F05D100F1080CB4
:1009300008FA0CF8C2F8148091F803C0BCF1480F13
:1009400007D100F1080C4FF0010808FA0CF8C2F8C2
:100950001080401C0828CED35460BDE8F0814FF6CB
:10096000FF710180022181700421C170704702462D
:10097000002093680B400BB1012000E0002070477D
:100980000146886880B2704702460020D3680B4059
:100990000BB1012000E0002070470146C86880B21A
:1009A000704701617047416170470AB1016100E021
:1009B00041617047C16070474FF480320A438261E1
:1009C0008161826182698269704702460020434BDF
:1009D00018684FF68073184040EA021008433F4BF6
:1009E000186070473E49C8617047F0B50A46002359
:1009F00000240021002500F00046B6F1004F02D18E
:100A0000364EF16901E0354E7168C0F3034583B29B
:100A100000F44016B6F5401F08D121F070612F4E4A
:100A2000766826F070662D4F7E6012E000F4801626
:100A3000B6F5801F06D1032606FA05F4A14341F05E
:100A4000706106E0460D360103FA06F6B14341F047
:100A5000706122B1460D360103FA06F6314300F00B
:100A60000046B6F1004F02D11C4EF16101E01B4E71
:100A70007160F0BD30B500228B071C0F0F2303FA05
:100A800004F2164B08338C1053F824309343134C64
:100A900008348D1044F8253023468C1053F8243048
:100AA0008C07240F00FA04F423430C4C08348D10F7
:100AB00044F8253030BD0A49DC3108607047000039
:100AC00000080140000C01400010014000140140EA
:100AD00000180140001C01400020014000000140BE
:100AE00000002042DF48006840F00100DD49086056
:100AF00008464068DC490840DA4948600846006812
:100B0000DA490840D74908600846006820F4802088
:100B100008600846406820F4FE0048604FF41F005B
:100B200088607047CF49096821F48031CD4A11604F
:100B30001146096821F480211160B0F5803F03D08F
:100B4000B0F5802F0ED106E0C649096841F4803126
:100B5000C44A116007E0C349096841F4A021C14AB1
:100B6000116000E000BF00BF704710B501460022D1
:100B7000002300204A11012A02D1BA4C236806E062
:100B8000022A02D1B74C236A01E0B64C636A01F035
:100B90001F02012494401C400CB1012000E0002001
:100BA00010BD38B5002000900024002500BF312082
:100BB000FFF7DBFF05460098401C00900098B0F559
:100BC000A06F01D0002DF2D03120FFF7CEFF08B189
:100BD000012400E00024204638BD01460020A14A3F
:100BE000106820F0F80040EAC10010607047A0498A
:100BF00008607047024600209A4B586820F47C1029
:100C000042EA01031843974B5860704798490866B9
:100C1000704701460020934A506820F003000843C3
:100C2000506070478F48406800F00C0070470146E4
:100C300000208C4A506820F0F00008435060704754
:100C400001460020874A506820F4E0600843506065
:100C5000704701460020834A506820F4605040EA03
:100C6000C1005060704729B17E4A527A02437D4BE1
:100C70005A7204E07B4A527A82437A4B5A72704726
:100C80007B49D8310860704701460020754A50689A
:100C900020F440400843506070470021714A2032E0
:100CA0001170704A82F82010012802D004280AD15D
:100CB00004E001216B4A2032117005E00521694AE8
:100CC0002032117000E000BF00BF70476949086022
:100CD00070476449096A0143624A11627047654975
:100CE00044390860704730B50021002200240023F9
:100CF0005C4D6D6805F00C0121B1042905D008296F
:100D000023D105E05C4D056022E05B4D05601FE0EE
:100D1000544D6D6805F47012524D6D6805F48034C1
:100D2000022505EB92421CB9544D554305600BE07A
:100D30004C4D6D6805F400351DB1504D55430560AF
:100D400002E04D4D5543056002E04B4D056000BF8C
:100D500000BF444D6D6805F0F0010909484D6B5C1A
:100D60000568DD4045603F4D6D6805F4E061090AA6
:100D7000434D6B5C4568DD4085603A4D6D6805F418
:100D80006051C90A3E4D6B5C4568DD40C560354D1C
:100D90006D6805F44041890B3A4D6B5CC568B5FB45
:100DA000F3F5056130BD29B12E4A526902432D4B3E
:100DB0005A6104E02B4A526982432A4B5A617047B8
:100DC00029B1284A92690243264B9A6104E0254AD8
:100DD00092698243234B9A61704729B1214AD269B3
:100DE0000243204BDA6104E01E4AD26982431D4B64
:100DF000DA61704729B11B4AD2680243194BDA60A5
:100E000004E0184AD2688243164BDA60704729B171
:100E1000144A12690243134B1A6104E0114A126921
:100E20008243104B1A61704712494039086070477D
:100E30000F49C86470470B49C87170470948406A38
:100E400040F0807007494862704701460020054A1B
:100E500092680A400AB1012000E000207047014971
:100E600088727047001002400000FFF8FFFFF6FE96
:100E7000000042428004424200127A0000093D0014
:100E8000140000202400002010B50446FB488442D2
:100E900009D101218803FFF7ADFF00214FF4804005
:100EA000FFF7A8FF32E0F648844209D10121480447
:100EB000FFF7ADFF00214FF40030FFF7A8FF25E05A
:100EC000F048844209D101218804FFF7A0FF0021E6
:100ED0004FF48020FFF79BFF18E0EB48844209D1D4
:100EE0000121C804FFF793FF00214FF40020FFF712
:100EF0008EFF0BE0E548844208D101210805FFF789
:100F000086FF00214FF48010FFF781FF10BD2DE90F
:100F1000F04786B005460E460024A24600BFA14613
:100F20000027B08900B100BF2F462C8A4CF6FF7015
:100F30000440F08804432C82AC894EF6F310044040
:100F4000B08831890843718908430443AC81AC8A75
:100F50004FF6FF400440B0890443AC8201A8FFF77C
:100F6000C2FEC648874202D1DDF810A001E0DDF8DC
:100F70000CA0A88900F4004040B10AEBCA0000EBC5
:100F80000A1031684900B0FBF1F807E00AEBCA002B
:100F900000EB0A1031688900B0FBF1F86420B8FB5F
:100FA000F0F004012009642101FB1089A88900F4F4
:100FB000004040B1322000EBC900B0FBF1F000F07E
:100FC0000700044308E0322000EB09106421B0FB65
:100FD000F1F000F00F0004432C8106B0BDE8F0876B
:100FE0004FF41651016000218180C18001810C21E4
:100FF000418100218181704710B502460020108A8E
:101000004FF2FF0318400B884C8823438C882343FE
:10101000CC8823431843108210BD002101804180F9
:101020008180C180704721B1828942F4005282815F
:1010300004E082894DF6FF731A4082817047F0B553
:101040000346002400260025002040F66A17B94216
:1010500000D100BF1846C1F3421401F01F0601275A
:1010600007FA06F5012C01D10C3004E0022C01D165
:10107000103000E014301AB107682F43076002E017
:101080000768AF430760F0BD1AB1838A0B438382C0
:1010900002E0838A8B4383827047028A4FF6F073A3
:1010A0001A400282028A0A430282704782894FF202
:1010B000FF731A40828182890A438281704721B17D
:1010C000828942F00202828104E082894FF6FD7338
:1010D0001A4082817047028A4FF6DF731A400282FB
:1010E000028A0A430282704721B1028A42F4804296
:1010F000028204E0028A4BF6FF731A4002827047B4
:10110000C1F308028280704701468888C0F3080056
:101110007047818941F0010181817047028BD2B211
:101120000283028B42EA012202837047028B02F49F
:101130007F420283028B0A430283704721B1828A75
:1011400042F02002828204E0828A4FF6DF731A4066
:101150008282704721B1828A42F01002828204E0CA
:10116000828A4FF6EF731A408282704721B1828AD9
:1011700042F00802828204E0828A4FF6F7731A4036
:101180008282704721B1828942F40042828103E069
:101190008289C2F30E028281704721B1828A42F4B1
:1011A0000062828204E0828A4FF2FF731A408282D8
:1011B0007047828A4FF6FB731A408282828A0A4302
:1011C0008282704721B1828A42F00202828204E068
:1011D000828A4FF6FD731A408282704702460020D1
:1011E000B1F5007F00D100BF13880B400BB1012087
:1011F00000E00020704701F40072B2F5007F00D1DA
:1012000000BFCA430280704770B502460024002325
:101210000025002040F66A16B14200D100BFC1F39C
:10122000421501F01F03012606FA03F3012D02D136
:101230009689334006E0022D02D1168A334001E040
:10124000968A33400C12012606FA04F416883440BC
:1012500013B10CB1012000E0002070BD10B50022D8
:10126000002340F66A14A14200D100BF0A120124F3
:101270009440A3B2DC43048010BD0000003801405C
:101280000044004000480040004C00400050004036
:1012900010B50446FE48844208D10121C014FFF76E
:1012A000A9FD0021E014FFF7A5FDC4E0B4F1804FD3
:1012B00008D101210846FFF7AAFD00210120FFF710
:1012C000A6FDB8E0F348844208D101210220FFF7CF
:1012D0009EFD00210220FFF79AFDACE0EE4884421B
:1012E00008D101210420FFF792FD00210420FFF71F
:1012F0008EFDA0E0E948844208D101210820FFF7D3
:1013000086FD00210820FFF782FD94E0E448844236
:1013100008D101211020FFF77AFD00211020FFF7EE
:1013200076FD88E0DF48844208D101212020FFF7C4
:101330006EFD00212020FFF76AFD7CE0DA48844240
:1013400008D101214014FFF755FD00216014FFF77B
:1013500051FD70E0D548844209D10121C804FFF74E
:1013600049FD00214FF40020FFF744FD63E0D04821
:10137000844209D101210805FFF73CFD00214FF40B
:101380008010FFF737FD56E0CA48844209D1012199
:101390004805FFF72FFD00214FF40010FFF72AFD4D
:1013A00049E0C548844208D101214020FFF72FFDC4
:1013B00000214020FFF72BFD3DE0C048844208D1CA
:1013C00001218020FFF723FD00218020FFF71FFD72
:1013D00031E0BB48844208D101218015FFF717FD99
:1013E0000021A015FFF713FD25E0B648844209D17E
:1013F00001210804FFF7FEFC00214FF48030FFF7C5
:10140000F9FC18E0B048844209D101214804FFF7F3
:10141000F1FC00214FF40030FFF7ECFC0BE0AB488F
:10142000844208D101218804FFF7E4FC00214FF435
:101430008020FFF7DFFC10BD00220288944B984209
:101440000ED0994B98420BD0B0F1804F08D0914B01
:10145000984205D0904B984202D0904B984204D1CC
:101460004FF68F731A404B881A438D4B984207D022
:101470008C4B984204D04FF6FF431A40CB881A4356
:1014800002808B8883850B880385814B98420BD023
:10149000854B984208D08B4B984205D08A4B984296
:1014A00002D08A4B984201D10B7A038601238382B2
:1014B000704770B5002400220023058C4FF6FE769D
:1014C00035400584028C8388048B4FF68F752C4041
:1014D000B51E2C400D882C43751E2A400D892A43C9
:1014E0004D882A436A4DA8420BD06F4DA84208D0C0
:1014F000744DA84205D0744DA84202D0734DA84245
:1015000013D14FF6F7752A404D892A434FF6FB75E4
:101510002A408D882A434FF6FF652B404FF6FF5532
:101520002B408D892B43CD892B4383800483CD8829
:101530008586028470BD70B5002400220023058CCE
:101540004FF6EF7635400584028C8388048B48F68D
:10155000FF752C404FF6FF452C400D884FF6FF7667
:1015600006EA05252C434FF6DF752A400D8906EA69
:1015700005152A434D8806EA05152A43444DA8421D
:1015800002D0494DA8421DD14FF67F752A404D89A2
:101590004FF6FF7606EA05152A434FF6BF752A4037
:1015A0008D8806EA05152A434FF6FF352B404FF28A
:1015B000FF752B408D8906EA85052B43CD8906EA08
:1015C00085052B4383800483CD880587028470BD05
:1015D00070B5002400220023058C4FF6FF663540CD
:1015E0000584028C8388848B4FF68F752C404FF6D0
:1015F000FC752C400D882C434FF6FF552A400D8971
:101600004FF6FF7606EA05252A434D8806EA0525AA
:101610002A431F4DA84202D0234DA8421DD14FF2AC
:10162000FF752A404D894FF6FF7606EA05252A43C5
:101630004FF6FF352A408D8806EA05252A434EF6E7
:10164000FF752B404DF6FF752B408D8906EA051579
:101650002B43CD8906EA05152B4383808483CD88EF
:101660008587028470BD70B5002200230024058C9C
:101670004EF6FF7635400584038C8488828B48F6CD
:10168000FF752A404FF6FF452A400D8820E00000F4
:10169000002C01400004004000080040000C004005
:1016A000001000400014004000340140004C014094
:1016B000005001400054014000180040001C004050
:1016C000002000400040014000440140004801402B
:1016D0004FF6FF7606EA05252A434DF6FF752B40A7
:1016E0000D8906EA05352B434D8806EA05352B435F
:1016F000FA4DA84202D0FA4DA84208D14BF6FF7528
:101700002C408D894FF6FF7606EA85152C438480A0
:101710008283CD88A0F84050038470BD828B4FF245
:10172000FF331A408283828B4FF6FF7303EA012353
:101730001A4382837047F0B50C46154600220021FB
:101740000026078C4EF6FF7C07EA0C070784828B85
:10175000018C4FF6FF7707EA043640F6FF473A4020
:101760004FF6FF7707EA05273A434FF6FF7707EA78
:1017700003373A43D94FB8420ED0D94FB8420BD0B5
:10178000B0F1804F08D0D74FB84205D0D64FB842FD
:1017900002D0D64FB84206D14DF6FF77394046F415
:1017A0008057394305E047F6FF57394044F48057E6
:1017B000394382830184F0BD828B4FF6F3731A4064
:1017C0008283828B0A4382837047F0B50C461546AC
:1017D000002200210026078C4FF6FF6C07EA0C0759
:1017E0000784828B018C4FF6FF7707EA04264FF6B9
:1017F0000C773A404FF6FF7707EA03172F433A4337
:10180000B64FB8420ED0B64FB8420BD0B0F1804FB1
:1018100008D0B44FB84205D0B34FB84202D0B34F4E
:10182000B84206D14FF6FF57394046F48077394326
:1018300005E04FF2FF57394044F480773943828303
:101840000184F0BD028B4FF2FF331A400283028BFA
:101850004FF6FF7303EA01231A4302837047F0B582
:101860000C461546002200210026078C4FF6EF7C1F
:1018700007EA0C070784028B018C4FF6FF7707EA13
:10188000041640F6FF473A404FF6FF7707EA033762
:101890003A434FF6FF7707EA05273A438F4FB8429E
:1018A0000ED08F4FB8420BD0B0F1804F08D08D4F83
:1018B000B84205D08C4FB84202D08C4FB84206D106
:1018C0004FF6DF77394046F01007394305E04FF611
:1018D0005F77394044F01007394302830184F0BD3B
:1018E000028B4FF6F3731A400283028B0A43028382
:1018F0007047F0B50C46154600220021068C4FF6C5
:10190000FE773E400684028B018C4FF60C76324007
:101910007E1C06EA03162E433243704EB0420ED0B0
:101920006F4EB0420BD0B0F1804F08D06D4EB04238
:1019300005D06D4EB04202D06C4EB04206D14FF68B
:10194000FD76314044F00106314305E04FF6F5766F
:10195000314044F00106314302830184F0BD70B58B
:1019600005460C465D4885420ED05D4885420BD049
:10197000B5F1804F08D05B48854205D05A48854272
:1019800002D05A48854200D100E000BF208850B9FB
:101990002389A28861882846FFF7ABFFE1882846A3
:1019A000FFF79EFF25E0208804280AD12389A2881A
:1019B00061882846FFF753FFE1882846FFF742FF7A
:1019C00017E0208808280AD12389A2886188284640
:1019D000FFF7FBFEE1882846FFF7EEFE09E02389CA
:1019E000A28861882846FFF7A6FEE1882846FFF70F
:1019F00095FE70BD2DE9F04105460C4600260127F5
:101A0000608808B9022600E00026A088012801D1DC
:101A1000022700E001272088A0B92389A2886188D5
:101A20002846FFF766FFE1882846FFF759FF23891C
:101A30003A4631462846FFF712FFE1882846FFF76D
:101A400001FF13E02389A28861882846FFF707FF7A
:101A5000E1882846FFF7F6FE23893A4631462846B4
:101A6000FFF747FFE1882846FFF73AFFBDE8F0811E
:101A70000A884B881A438B881A43CB881A430B89F0
:101A80001A434B891A438B891A43A0F844207047A4
:101A90004FF6FF71818000210180C1804180017279
:101AA00070470021018041808180C1800181418196
:101AB0008181C181704700210180418001218180A5
:101AC0000021C18001817047002101804180818017
:101AD000C18001814181818170470000002C01405B
:101AE000003401400004004000080040000C0040A9
:101AF00021B1028842F00102028004E002884FF620
:101B0000FE731A400280704731B1B0F8442042F4AD
:101B10000042A0F8442005E0B0F84420C2F30E02D1
:101B2000A0F8442070471AB183890B43838102E0F7
:101B300083898B43838170478182704741EA020326
:101B4000A0F8483070471AB183890B43838102E0C3
:101B500083898B438381704701894FF6F872114066
:101B6000018170470A46002101894FF68F731940A1
:101B700011430181704730B504460D462946204681
:101B8000FFF7F0FF208940F00700208130BD2DE9EC
:101B9000F04104460D4616461F46602D06D13B46D1
:101BA000012231462046FFF75AFE05E03B4601225E
:101BB00031462046FFF79DFE29462046FFF7D2FF1B
:101BC000208940F007002081BDE8F08130B50C4647
:101BD00000210189C9B24FF6FF7505EA03251543B7
:101BE00025432943018130BD2DE9F04105460E46CC
:101BF00017469846002443463A4631462846FFF7A2
:101C0000E5FF2C894FF6F870044044F007044FF6C6
:101C10008F70044044F070042C81BDE8F081F0B571
:101C200004460D4616461F463B4632462946204688
:101C3000FFF7CCFF208940F480402081F0BD018572
:101C4000828270470A46002101884FF68F7319403F
:101C5000114301807047F0B50C4615461E46002121
:101C6000002200230189028B038C4FF6F87739405C
:101C700021434FF6FC473A4040F201173A434FF6F2
:101C8000DD773B404FF6FF7707EA06172F433B43CC
:101C9000018102830384F0BD0A460021018B4FF6C7
:101CA0008F7319401143018370470A460021018B4D
:101CB00048F6FF7319404FF6FF7303EA02231943F6
:101CC000018370470A460021818B4FF68F731940BC
:101CD0001143818370470A460021818B48F6FF73C8
:101CE00019404FF6FF7303EA0223194381837047BB
:101CF00021B1028842F08002028004E002884FF69F
:101D00007F731A400280704721B1828842F004023A
:101D1000828004E082884FF6FB731A40828070470D
:101D200021B1828842F00802828004E082884FF666
:101D3000F7731A408280704721B1828842F0010215
:101D4000828004E082884FF6FE731A4082807047DA
:101D50000A460021018B4FF6F773194011430183A6
:101D600070470A460021018B4FF2FF7319404FF66E
:101D7000FF7303EA02231943018370470A460021D7
:101D8000818B4FF6F77319401143818370470A46E0
:101D90000021818B4FF2FF7319404FF6FF7303EA66
:101DA00002231943818370470A460021018B4FF6B5
:101DB000FB7319401143018370470A460021018BD0
:101DC0004FF6FF3319404FF6FF7303EA022319431E
:101DD000018370470A460021818B4FF6FB7319403F
:101DE0001143818370470A460021818B4FF6FF33F0
:101DF00019404FF6FF7303EA0223194381837047AA
:101E00000A460021018B4FF67F731940114301836D
:101E100070470A460021018BC1F30E014FF6FF7394
:101E200003EA02231943018370470A460021818B8C
:101E30004FF67F7319401143818370470A46002192
:101E4000818BC1F30E014FF6FF7303EA022319439E
:101E5000818370470A460021018C4FF6FD731940BB
:101E60001143018470470A460021018C4FF6F77335
:101E700019401143018470470A460021018C4FF636
:101E8000DF7319404FF6FF7303EA0213194301840D
:101E900070470A460021018C4FF67F7319404FF6B8
:101EA000FF7303EA02131943018470470A460021B5
:101EB000018C4FF6FF5319404FF6FF7303EA0223DC
:101EC0001943018470470A460021018C4FF2FF73C9
:101ED00019404FF6FF7303EA022319430184704748
:101EE0000A460021018C4DF6FF7319404FF6FF732F
:101EF00003EA023319430184704730B500230124FB
:101F00008C40A3B2048C9C430484048C02FA01F537
:101F1000ADB22C43048430BD30B5002304248C4082
:101F2000A3B2048C9C430484048C02FA01F5ADB284
:101F30002C43048430BD70B50346002000241846AD
:101F4000183001258D40ACB21D8CA5431D8409B10C
:101F5000082909D100EB6100056825F070050560CE
:101F60000568154305600EE00D1FC5F34E052844B6
:101F7000056825F4E045056005684FF6FF7606EA3A
:101F800002263543056070BD21B1028842F002028D
:101F9000028004E002884FF6FD731A400280704709
:101FA00021B1028842F00402028004E002884FF668
:101FB000FB731A400280704721B1828842F0800290
:101FC000828004E082884FF67F731A4082807047D7
:101FD00002884FF6F7731A40028002880A43028093
:101FE000704782884FF68F731A40828082880A4336
:101FF0008280704702894FF6F8731A400281028985
:102000000A430281704702894FF67F731A400281AA
:1020100002890A4302817047818470478185704735
:10202000818670470187704781877047A0F840100C
:10203000704702884FF6FF431A40028002880A4325
:10204000028070470146888E70470146088F7047AE
:102050000146888F70470146B1F84000704701463D
:10206000888C70470146088D704702460020138A0D
:102070000B400BB1012000E000207047CA430282F0
:10208000704730B50246002000230024158A05EA77
:102090000103958905EA010413B10CB1012000E0A8
:1020A000002030BDCA43028270470000002044492E
:1020B0000860091D0860091D0860091D0860414885
:1020C0003F4914310860704700213D498279002A58
:1020D0003AD00A46126803689A430B461A600A1DF2
:1020E000126803689A430B1D1A60027911440A684A
:1020F00003681A430A60324A0832126803689A4336
:102100002F4B08331A601A1D126803689A432C4B30
:102110000C331A604279102A0ED11A1F1268036814
:102120001A43274B08331A601A1D126803681A43B2
:10213000234B0C331A600DE02149427911440A689F
:1021400003681A430A6005E0027911440A680368CB
:102150009A430A6070470021016001710C214171AE
:102160000021817170471649103109680143144AF2
:1021700010321160704701460020114A1432126873
:102180000A400AB1012000E0002070470C491431D8
:1021900008607047014600200022094B1B6803EAD3
:1021A0000102074B14331B680B4013B10AB1012025
:1021B00000E00020704702491431086070470000B9
:1021C00000040140FFFF0F0010B56FF00400FEF7A0
:1021D000BCFA2E4800682E49B0FBF1F02D4908707A
:1021E0000846007800EB4001C1EBC0104FF6FF71CC
:1021F00001EAC0002849088010BD0146254A12782E
:102200004A434FF0E0235A6100229A611A4612694C
:1022100042F001021A6100BF4FF0E022106900F0A5
:1022200001021AB100F48032002AF5D04FF0E0220A
:10223000126922F001024FF0E0231A6100229A6134
:1022400070470146144A12884A434FF0E0235A610E
:1022500000229A611A46126942F001021A6100BF17
:102260004FF0E022106900F001021AB100F4803250
:10227000002AF5D04FF0E022126922F001024FF05F
:10228000E0231A6100229A617047000000000020DC
:1022900000127A00280000202A00002008B5012141
:1022A0001820FEF78DFD4FF40050ADF8000010200F
:1022B0008DF8030003208DF8020069460C48FEF7F4
:1022C000C3FA4FF400510A48FEF76BFB0120ADF84A
:1022D000000010208DF8030003208DF802006946ED
:1022E0000448FEF7B1FA01210248FEF75AFB08BD87
:1022F00000100140000C014000BF704700BF704754
:1023000000BFA14A128802F04002002AF9D0C2B2EE
:102310009D4B1B1D1A80704710B586B004460121E5
:1023200044F20400FEF74CFD4FF40070ADF81400C9
:1023300003208DF8160018208DF8170005A9934882
:10234000FEF782FA4FF48060ADF8140004208DF897
:10235000170005A98D48FEF777FA25208DF80000B3
:1023600003208DF801008DF8020001208DF8030094
:102370006846FEF7A0F901940020ADF80800ADF81A
:102380000A00ADF80C00ADF810000C20ADF80E00FE
:1023900001A97D48FEF7BBFD012240F225517A4894
:1023A000FEF74DFE01217848FEF73DFE06B010BD58
:1023B00070B502460B460025002100244FF6FF7041
:1023C00000BF12E0555C684000240AE000F00106FE
:1023D00026B140104AF20106704000E04010661C31
:1023E000B4B2082CF2DB4E1CB1B29942EADB70BDEC
:1023F00010B5044621466448FEF782FE00BF402126
:102400006148FEF7EBFE0028F9D010BD2DE9FC5F16
:1024100006460F4615460024A0464FF005094FF02A
:10242000020A4FF0080B00200090019055208DF813
:102430000000AA208DF801008DF8026028128DF8A6
:102440000300E8B28DF8040000BF06E0385D04EB3D
:1024500009010DF80100601C84B2AC42F6DBCAF140
:10246000080081B26846FFF7A3FF80464FEA2820A4
:102470008DF8060008F0FF008DF80700002405E045
:102480001DF80400FFF7B4FF601C84B2082CF7DBD2
:10249000BDE8FC9F70B5044620683D490840B0F196
:1024A000005F04D165682068FDF7C8FEA84770BDCD
:1024B0002DE9F041002400250026002740F2255197
:1024C0003148FEF7A1FE00285CD02F48FEF71CFE25
:1024D000C1B2304802880088401C2E4B18802E481C
:1024E00081542948FEF710FE2C49087029480088BD
:1024F00040F21A41884245DB00202649088000BF8F
:102500001CE02548005D552816D12349601C085C55
:10251000AA2811D1A01C085C55280DD1E01C085C2C
:10252000AA2809D1201D0E5C4FF6FF7000EA06268E
:10253000601D085C064305E0601C84B240F21A404E
:102540008442DEDB00BFA01940F21A41884219DA4A
:1025500000250AE01248405D71190F4A515C88421B
:1025600001D1781CC7B2681C85B2102DF2DB102F88
:1025700008DBA01D84B22046611C8CB20649085CB1
:1025800006490870BDE8F0810038014000080140AC
:102590000000FE2F32000020440000203000002008
:1025A0005E04002008B501210820FEF709FCC020C8
:1025B000ADF8000010208DF8030003208DF8020014
:1025C0006946FE48FEF740F90120FD490860FD49D3
:1025D000C1F89C0108BD08B58020ADF800001020AE
:1025E0008DF8030003208DF802006946F348FEF7DA
:1025F0002BF908BD08B58020ADF8000001208DF84A
:10260000020004208DF803006946EC48FEF71CF92F
:1026100008BD10B5FFF7DFFF0120E949091D08607B
:10262000E849C1F898010020E549091D0860E5491D
:10263000C1F8980110BD10B5FFF7CDFF0020E049AB
:102640000860E049C1F89C010120DD490860DD49CE
:10265000C1F89C0110BD10B50024FFF7CBFF01208D
:10266000D749091D0860D749C1F8980107E0601CE7
:10267000C4B2FA2C03DDFFF7DEFF012010BDD04805
:102680007C3800680028F2D1CD49086000BFF5E72A
:1026900010B50020CA490860FFF79DFF0020C94916
:1026A000C1F89C010120C64908600020C549C1F855
:1026B000980110BD10B50020C1490860FFF78BFFDD
:1026C0000120C049C1F89C01BD4908600020BD49F6
:1026D000C1F8980110BD70B50446FFF77CFF0020DB
:1026E000B749086000250EE0E009B549091D0860FA
:1026F0006006040E0120B349C1F898010020B049DA
:102700000860681CC5B2082DEEDB70BD70B50546CB
:102710000024FFF76FFF002610E00020A8490860A2
:102720000120A849C1F898016006040EA4487C382D
:10273000006808B1601CC4B2701CC6B2082EECDB85
:1027400015B9FFF7B7FF01E0FFF7A2FF204670BD04
:1027500070B505460C4672B6FFF75BFF7820FFF7B1
:10276000BAFFFFF778FF2846FFF7B5FFFFF773FFC3
:102770002046FFF7B0FFFFF76EFFFFF75CFF62B682
:1027800070BD10B5044621460020FFF7E1FF10BDE3
:1027900010B5044621464020FFF7DAFF10BD10B502
:1027A000FFF700FF6420FFF74CFDAE20FFF7E9FFC5
:1027B0002020FFF7E6FF1020FFF7E3FFB020FFF730
:1027C000E0FFC820FFF7DDFF0020FFF7DAFF102051
:1027D000FFF7D7FF4020FFF7D4FF8120FFF7D1FF9D
:1027E000FF20FFF7CEFFA120FFF7CBFFA620FFF7CA
:1027F000C8FFA820FFF7C5FF3F20FFF7C2FFA420B6
:10280000FFF7BFFFD320FFF7BCFF0020FFF7B9FFA2
:10281000D520FFF7B6FFF020FFF7B3FFD920FFF771
:10282000B0FF2220FFF7ADFFDA20FFF7AAFF12204A
:10283000FFF7A7FFDB20FFF7A4FF2020FFF7A1FF92
:102840008D20FFF79EFF1420FFF79BFFAF20FFF7BF
:1028500098FF10BD70B504460D4605F1B001C8B231
:10286000FFF78FFF102141EA1410FFF78AFF04F0F1
:102870000F0141F00100FFF784FF70BD70B50646FF
:10288000002415E004F1B001C8B2FFF77AFF002080
:10289000FFF777FF1020FFF774FF002504E03046B4
:1028A000FFF776FF681CC5B2802DF8DB601CC4B250
:1028B000082CE7DB70BD10B58D20FFF762FF1420F8
:1028C000FFF75FFFAF20FFF75CFF10BD10B58D2055
:1028D000FFF757FF1020FFF754FFAE20FFF751FF1F
:1028E00010BD802802DBA0F18003D8B2082902DBEA
:1028F000A1F10803D9B2344B03EBC0035A5470471B
:1029000000200CE0002106E000222F4B03EBC10366
:102910001A544A1CD1B28029F6DB421CD0B20828D6
:10292000F0DB704770B5002418E004F1B001C8B2C4
:10293000FFF727FF0020FFF724FF1020FFF721FFFC
:10294000002507E0204901EBC501085DFFF720FFE6
:10295000681CC5B2802DF5DB601CC4B2082CE4DB1A
:10296000FFF7CEFF70BD10B50A46CC1701EB5474CB
:10297000E410A1EBC404E3B2CC1701EB5474C4F32C
:10298000C701114A02EBC002525C01249C40224361
:102990000D4C04EBC004625410BD2DE9FF4F84B010
:1029A00081468A460020039002900698A0EB090514
:1029B0000798A0EB0A06CDF8049007E0000C014050
:1029C00098812142008021426E040020CDF800A0B1
:1029D000002D01DD012705E00DB9002702E04FF0D1
:1029E000FF376D42002E02DD4FF0010806E016B9F8
:1029F0004FF0000802E04FF0FF387642B54201DDAB
:102A00002C4600E034464FF0000B21E0009AD1B292
:102A1000019AD0B2FFF7A7FF0398284403900298C9
:102A2000304402900398A04205DD0398001B0390F8
:102A30000198384401900298A04205DD0298001BDD
:102A400002900098404400900BF101001FFA80FBB7
:102A5000601C8345DADD08B0BDE8F08FF0B50446B0
:102A60000D4616461F462B46324629462046FFF79E
:102A700094FF3B46224629462046FFF78EFF3B4601
:102A8000324639462046FFF788FF3B463246294604
:102A90003046FFF782FFF0BD2DE9F04306460F46B2
:102AA000904699460024002534460BE03D4605E05B
:102AB00029462046FFF757FF681CC5B24D45F7DB96
:102AC000601CC4B24445F1DBBDE8F083F0B50446B8
:102AD0000D4616461F46EA19D1B2A219D0B2FFF729
:102AE00042FFEA19D1B2A21BD0B2FFF73CFFEA1BAA
:102AF000D1B2A219D0B2FFF736FFEA1BD1B2A21BA6
:102B0000D0B2FFF730FFAA19D1B2E219D0B2FFF765
:102B10002AFFAA19D1B2E21BD0B2FFF724FFAA1BE9
:102B2000D1B2E219D0B2FFF71EFFAA1BD1B2E21B4D
:102B3000D0B2FFF718FFF0BD2DE9F05F82468B465B
:102B40001746994600243D467800C0F10306B9F1C6
:102B5000000F1FD01BE0A04608E008F0FF03E2B220
:102B600059465046FFF7B2FF08F10108A845F4DDC9
:102B7000002E04DA042000FB0460861D06E0601BC2
:102B8000042101FB006000F10A066D1E641CAC42CA
:102B9000E1DD17E014E0EBB2E2B259465046FFF730
:102BA00095FF002E04DA042000FB0460861D06E079
:102BB000601B042101FB006000F10A066D1E641C0D
:102BC000AC42E8DDBDE8F09F2DE9F04304460D4638
:102BD00016461F46DDE907893B4632462946204610
:102BE000FFF7DBFE4B46424639463046FFF7D5FE3F
:102BF0002B46224649464046FFF7CFFEBDE8F0830C
:102C000002780B7803700A7070472DE9FF4F85B08A
:102C1000002600279DF818009DF82010884207DD47
:102C200008A906A8FFF7ECFF07A905A8FFF7E8FF2A
:102C30009DF820009DF84C10884207DD08A913A8D4
:102C4000FFF7DEFF07A912A8FFF7DAFF9DF81800CB
:102C50009DF82010884207DD08A906A8FFF7D0FFDD
:102C600007A905A8FFF7CCFF9DF818009DF84C10A8
:102C7000884235D19DF81400039004909DF81C0003
:102C80009DF81010884203DA9DF81C00049008E0BB
:102C90009DF81C009DF80C10884202DD9DF81C0078
:102CA00003909DF848009DF81010884203DA9DF8C3
:102CB0004800049008E09DF848009DF80C108842F8
:102CC00002DD9DF8480003909DF818309DF80C2017
:102CD00019469DF81000FFF7DFFE09B0BDE8F08F40
:102CE0009DF81C009DF81410A0EB010B9DF820002E
:102CF0009DF81810401A02909DF848009DF8141095
:102D0000451A9DF84C009DF81810A0EB01099DF89C
:102D100048009DF81C10A0EB010A9DF84C009DF89E
:102D20002010401A01909DF820009DF84C10884218
:102D300002D19DF8208004E09DF82000401E00F0A4
:102D4000FF089DF8184024E0029896FBF0F09DF8EB
:102D500014100844C0B2049097FBF9F09DF81410C9
:102D60000844C0B203905E442F449DF810009DF8C3
:102D70000C10884203DD03A904A8FFF741FF234696
:102D80009DF80C2021469DF81000FFF785FE601C81
:102D9000C4B24445D8DD9DF82000201A00FB0AF695
:102DA0009DF81800201A00FB05F724E0019896FB17
:102DB000F0F09DF81C100844C0B2049097FBF9F0A5
:102DC0009DF814100844C0B2039056442F449DF857
:102DD00010009DF80C10884203DD03A904A8FFF73A
:102DE0000FFF23469DF80C2021469DF81000FFF7A9
:102DF00053FE601CC4B29DF84C008442D6DD00BF77
:102E00006BE72DE9F0470546894617469A464FF08D
:102E1000000800240026BAF1010F03D0BAF1020F16
:102E20005CD123E01EE0B85D203800F0FF087A2D69
:102E300004DD002509F1010000F0FF0900240DE088
:102E400008EB4801674B03EB41010A5D28466B1C08
:102E5000DDB24946FFF745FD601CC4B2062CEFDB2E
:102E6000701CC6B2B85D0028DDD137E032E0B85D35
:102E7000203800F0FF08782D04DD002509F101005D
:102E800000F0FF0900240AE004EB0811564B5A5CDD
:102E90002919C8B24946FFF724FD601CC4B2082CAA
:102EA000F2DB00240FE004EB08130833DFF838C12D
:102EB0001CF8032009F10103D9B22B19D8B2FFF78E
:102EC00010FD601CC4B2082CEDDB05F10800C5B292
:102ED000701CC6B2B85D0028C9D100BF00BFBDE8F4
:102EE000F08770B504460D46164633462A462146FD
:102EF0000020FFF786FF70BD2DE9F04107460D4623
:102F000016464FF000080024012E02D0022E22D1D6
:102F100011E000BF2046611CCCB2285C0028F9D12A
:102F2000152C00DB152404EB44008021A1EB4000AC
:102F300000F0FF080FE000BF2046611CCCB2285C07
:102F40000028F9D1102C00DB10248020A0EBC40055
:102F500000F0FF0800BF00BF33462A46394640460E
:102F6000FFF74FFFBDE8F0812DE9F04107460D4620
:102F700016464FF000080024012E02D0022E28D160
:102F800014E000BF2046611CCCB2285C0028F9D1B7
:102F9000152C00DB152404EB4401480000EBD07134
:102FA0004910C1F1400101F0FF0812E000BF2046C6
:102FB000611CCCB2285C0028F9D1102C00DB102455
:102FC000E00000EBD0714910C1F1400101F0FF08B1
:102FD00000BF00BF33462A4639464046FFF711FF7F
:102FE000BDE8F081C45D0008EC5F000810B5012168
:102FF0000420FDF7E5FE10BD08B54FF48070ADF874
:10300000000010208DF8030003208DF802006946AF
:103010007C48FDF719FC4FF480717A48FDF7C1FC3C
:1030200008BD08B54FF48070ADF8000004208DF89D
:10303000030069467348FDF707FC08BD10B500247E
:10304000FFF7DAFF4FF480716E48FDF7ACFC1420F7
:10305000FFF7F7F84FF480716A48FDF7A2FCFFF71D
:10306000E0FF4FF4704400BF6748006820B1201EA5
:1030700004F101018CB2F7D14FF4704400BF6248F3
:10308000006820B9201E04F101018CB2F7D14FF481
:10309000704400BF5C48006820B1201E04F10101AB
:1030A0008CB2F7D110BD70B500260025002400BFFA
:1030B00021E04FF4704600BF5348006820B9301E2D
:1030C00006F101018EB2F7D11E20FFF796F86006D7
:1030D000040E4D48006808B144F001044FF47046F6
:1030E00000BF4948006820B1301E06F101018EB2D0
:1030F000F7D1681CC5B2082DDBDB204670BD2DE979
:10310000F04F87B00024A14600200590069004905F
:10311000FFF794FF72B6002405E0FFF7C4FF05A98E
:103120000855601CC4B2052CF7DBFFF765FF4FF4B0
:1031300080713448FDF735FC002406E005A8005DE9
:10314000484400F0FF09601CC4B2042CF6DB9DF873
:103150001800484501D0FFF7D2FF62B69DF8150070
:1031600002F0F4FA05460022284B02F003FB00228D
:10317000274BCDE9000102F091F982468B469DF87C
:10318000140002F0E3FA52465B46CDE9020102F078
:10319000DDF8074602F0A8F804901E49049802F0F2
:1031A000F1FC054602F0CEFC1B4908809DF8170093
:1031B00002F0CCFA07460022144B02F0DBFA0022A0
:1031C000134BCDE9000102F069F905460E469DF862
:1031D000160002F0BBFA2A463346CDE9020102F09E
:1031E000B5F8824602F080F804900A49049802F08B
:1031F000C9FC054602F0A6FC0849088007B0BDE8F6
:10320000F08F000000080140200121420000F03F43
:10321000000024400000204136000020340000203F
:103220001FB501210820FDF7CBFD0220ADF80C00F1
:1032300048208DF80F0003A93648FDF705FB012152
:103240000846FDF7BDFD01210846FDF713FC0220ED
:10325000019000208DF808000C208DF80900012055
:103260008DF80A0001A8FEF72FFF07208DF8000057
:1032700002208DF8010003208DF8020001208DF856
:1032800003006846FDF717FA1FBD10B50220FEF7D0
:1032900092FF4FF08040FEF7E2FE1F490A8809883E
:1032A000491C1D4B19801D4921F812001C4800784B
:1032B00040B918460088401E194608800121880739
:1032C000FEF716FC00214FF08040FEF7A5FE00BF80
:1032D000144800680028FBD04FF08040FEF7BFFE86
:1032E0000D490A880988491C0B4B19800B4921F8A4
:1032F000120000214FF08040FEF78EFE0648008845
:10330000B0F5AF7F02DB00200349088001200449AB
:10331000087010BD000C0140380000206E0C002029
:103320003A000020048121427FB505460C46012168
:103330000846FDF752FDADF80850ADF804400020F6
:10334000ADF80A00ADF8060001A94FF08040FEF785
:1033500073F8012211469007FEF7E5FB1C208DF85B
:10336000000000208DF8010003208DF802000120EC
:103370008DF803006846FDF79EF901218807FEF7E6
:10338000B7FB7FBD10B501218807FEF77AFEA0B11B
:1033900001218807FEF786FE11480088C82807DB50
:1033A00000200F4908800F480068401C0D49086044
:1033B0000B480088401C0A49088010BDF8B5054636
:1033C0000C4604F5E1400090684600F0A7F9064677
:1033D000334605A21921284600F0C6F9F8BD0000C1
:1033E000400000203C00002025592D256D2D25642E
:1033F0002025483A254D3A255300000008B5012103
:103400000820FDF7DDFC0120ADF8000010208DF84C
:10341000030003208DF8020069460448FDF714FA02
:1034200001210248FDF7BDFA08BD0000000C014073
:10343000704700000FB4044910B503AA029800F0C9
:10344000C7FD10BC5DF814FB2C0000200FB41CB5A8
:10345000084B06AA7B4469460090059800F09FFD42
:1034600004460020694600F0ADFD20461CBC5DF816
:1034700014FB00006D0B00002DE9F041064600240E
:1034800010687529314616A510D000F0A1FE00285D
:1034900002DA404213A507E031688A0701D512A578
:1034A00002E0490704D511A5012401E000F099FECE
:1034B00000210A2206F1240709E0B0FBF2FCB0FB70
:1034C000F2F302FB1C00303078541846491C0028E7
:1034D000F3D123462A463046BDE8F04100F0F2BA67
:1034E000000000002D0000002B0000002000000064
:1034F0002DE9F05F894604464FF0000ADFF874B109
:10350000FB44C0F820A02046E1688847002874D01A
:10351000252806D0D4E901219047206A401C20626A
:10352000F1E700265F462046E168884720280546E7
:1035300007DB312D05D2781910F8200C08B10643AD
:10354000F1E7B00701D526F00406C4F81CA0002757
:10355000C4F818A02A2D09D0284601F07BFE38B304
:1035600004EB8708303DC8F8185019E059F8041BDF
:10357000204604EB87029161E1688847012F0546E8
:1035800018D1E069002820DA26F020061DE0D8F8DE
:10359000180000EB800005EB40003038C8F8180038
:1035A0002046E1688847054601F054FE0028EED128
:1035B000012F0AD02E2D08D12046E16888477F1CB4
:1035C0000546022F46F02006C4DBA069002803DA76
:1035D000404246F00106A061F00701D026F0100637
:1035E0006C2D0BD0682D09D04C2D39D06A2D35D0DB
:1035F000742D35D07A2D33D016E038E0E1682F46AF
:1036000020468847B842054609D16C2F26D04FF492
:103610008060E168064320468847054604E06C2F39
:103620001AD04FF4807006430DB3A5F1410019285C
:1036300002D8203546F400664A46294620462660D0
:103640004E46FCF78DFD80B101280BD0F61D26F00B
:10365000070000F1080956E74020E4E78020D8E79A
:103660000020D6E706F104094DE7284652E7206A14
:10367000BDE8F09FD83000004FF0000200B51346BF
:1036800094469646203922BFA0E80C50A0E80C5082
:10369000B1F12001BFF4F7AF090728BFA0E80C5033
:1036A00048BF0CC05DF804EB890028BF40F8042B2C
:1036B00008BF704748BF20F8022B11F0804F18BF99
:1036C00000F8012B704710B5044610F0030F08BF37
:1036D00011F0030F40F015804FF0013E121FC0F2B1
:1036E0000E8051F8043BA3EB0E0C2CEA030C1CEAF1
:1036F000CE1C08BF40F8043BF0D0A1F1040102F158
:103700000402521E08DB11F8013B002B00F8013BBC
:10371000F7D1114600F06EFC204610BD014900F0C3
:103720008BBC00002C0F002070B5054601B90721A5
:10373000541A241DB4F5B67F09DD286800F05DF940
:10374000A04204DC2868401C2860012070BD002CC9
:1037500005DA2868401E286000F04FF9044407206D
:1037600094FBF0F0401C70BD2DE9F04F1F4615464C
:103770008B468246002689B000F08AF9D0F8108086
:103780000024BBF1000F70D015F8010B10B12528F3
:103790000DD10FE024B1641E06A850F82450F3E7C1
:1037A000002130460AF8061009B0BDE8F08F0AF88B
:1037B0000600C7E0E94615F8010B592870D023DC54
:1037C00049286ED014DC44286DD008DC2528EED0C2
:1037D00041283ED0422849D043282CD156E04528E4
:1037E000E9D0462869D0472876D0482823D17AE006
:1037F0004D380C281FD2DFE800F0881E061E1E9BE5
:10380000A0A9B3B5C1CFD6E75A38212813D2DFE833
:1038100000F0111212121212121A263745501259C4
:103820002612741212797E128012891296A212B395
:10383000BDCB1100A8E725200AF80600761C5E45DE
:1038400013D26D1EA0E7D8F80010BA69D8F824008A
:1038500011E0D8F80410BA69D8F828000BE0D8F8BD
:1038600008103A69D8F82C0005E0B2E0D8F80C103E
:103870003A69D8F8300002FB001101EB0809AAE010
:1038800006A840F82450D8F818108AE07969642016
:1038900091FBF0F21332484668A192E0FA6889E0A1
:1038A0008AE022E0FFE706A840F8245065A5641CE2
:1038B0006AE7FA6866A1484683E006A840F8245003
:1038C00064A5F4E7384600F0ADF8642190FBF1F20E
:1038D00001FB120258E0FFE7384600F0A3F8024669
:1038E0005FA168466DE0BA6864E0B8680C210B30EF
:1038F00090FBF1F201FB120205E0FA6959A148467A
:10390000521C5EE03A694DA1F9E77A6852E00A215B
:1039100016E0B8680C2802DAD8F81010ADE7D8F82D
:103920001410AAE706A840F82450D8F8341038E05C
:1039300006A840F824504DA5B9E73A683AE00921B5
:103940000AF80610761C5E45B2D342E006A840F89D
:10395000245048A5ABE7BA6902B9072248A1AAE7F3
:1039600000210CE0786900F26C700890D7E906122B
:1039700008A8FFF7D9FE06E0BA69EFE70121D7E909
:10398000062000F02EF802462CA1AAE706A840F86F
:103990002450D8F81C1004E006A840F82450D8F8A9
:1039A000201001EB080582E77969642091FBF0F2B1
:1039B00000FB121221A17EE77A69484628A102F293
:1039C0006C7200F069F806E00AF80600761C5E45A5
:1039D00001D30020E8E619F8010B00283FF4DFAE20
:1039E000F2E7511A00D5C91D401A01D500207047D1
:1039F000072190FBF1F0401C704781070CD1642136
:103A000090FBF1F201FB120151B94FF4C87190FB28
:103A1000F1F201FB120018B1002000F26D107047A6
:103A20000120FAE708B5416901F26C710091D0E913
:103A300006126846FFF778FE009808BD252E32640E
:103A400000000000256D2F25642F2579000000005F
:103A50002532640025592D256D2D256400000000B8
:103A600025640000252E33640000000025483A2517
:103A70004D00000025483A254D3A2553000000002E
:103A8000252E316400000000704770477047704772
:103A900000487047780F00200FB41CB5084B06AAE9
:103AA0007B4469460090059800F079FA04460020AE
:103AB000694600F087FA20461CBC5DF814FB000044
:103AC000210500002DE9F0470D469946924604462F
:103AD00000F124080168880604D5E06921F010018E
:103AE000216000E00120A84201DD471B00E0002723
:103AF000A1697A1902EB0900081AA0612078C006B2
:103B000002D4204600F03DFB002608E0D4E9012164
:103B10001AF806009047206A401C761C20624E4529
:103B2000F4DB2078C0060AD5204600F02AFB06E028
:103B3000D4E9012130209047206A401C2062381EC1
:103B4000A7F10107F4DC07E0D4E9012118F805002A
:103B50009047206A401C2062281EA5F10105F3DC75
:103B6000204600F024FB2078000602D50220BDE8A4
:103B7000F0870120FBE770472DE9FF4F0C461E46FA
:103B80004FF0FF378BB0D2E90001DDF860800A907A
:103B90008A46C1F30A5505B93D46002108464FF053
:103BA0000000BAF1000F00F4400005DA00EB8000DD
:103BB0004FF4400101EA50004FEA9059B9F1010F6A
:103BC00000DDB9460A9850EA4A000ED044F610507B
:103BD000A5F2FF3545432F14B8F1000F1ED07542F2
:103BE000291E1EDDC9F100021CE0B8F1010F4FF0E3
:103BF000000001D0302103E0F24305E02154401CD5
:103C0000B042FBDB30460022002121540B99C1F861
:103C10000880C1E900200FB0BDE8F08FBD1B6D1C0E
:103C2000DEE74A4600DA694206A800F07FFC06ABF0
:103C300093E8070003AB83E8070050460A9900F0B9
:103C40002DFF8DE80700A0F500501F380090039865
:103C5000002D0ADD42F21F014A460844002303A951
:103C60000390684601F096F909E0A0F500504A4635
:103C70001F38002303A90390684601F0A0F98DE8DE
:103C800007000004000C03D04FF0FF30410800E0B3
:103C90001046B8F1000F03D00022009215461EE036
:103CA000751E05D400F028FA303262556D1EF9D524
:103CB000B3460122084302D000227F1C04E0207892
:103CC000302801D100227F1E002A099784D01DE0F0
:103CD000112D07DA00F010FA303262556D1C50EAEF
:103CE0000102F5D1084302D00098C8B10EE00021CE
:103CF000681E05E0235C625C63542254401E491C2C
:103D00008142F7DBAB46A81B401E0990002004F857
:103D10000B000B98099AC0F80880C0E9002B7AE7DD
:103D200011264FF0000857E72DE9F04F884604466A
:103D3000D21D22F0070191B0D1E90001CDE90A01BD
:103D400001F074FA02460B98C00F01D02D2007E055
:103D50002068810701D52B2002E0202101EAC00064
:103D6000032A099001D0072A05DB03464146204675
:103D700000F07EFA0BE12078800601D5E06900E0D2
:103D80000620B8F1650F814606D0B8F1660F18D04D
:103D9000B8F1670F70D131E00020B9F1110F009038
:103DA00001DB112301E009F101030AAA01A90CA812
:103DB000FFF7E2FEDDE90C70002609F101058346FC
:103DC00047E001204B4600904FF000470AAA01A9A6
:103DD0000CA8FFF7D1FEDDE90DB00C995D46002679
:103DE00010B909F101000D18B9EB050003D4C0F1B9
:103DF000FF3609F10105A5EB09002BE0B9F1010F30
:103E000001DA4FF001090020B9F1110F0090484686
:103E100001DD112300E003460AAA01A90CA8FFF75F
:103E2000ABFEDDE90C704D46002683462078000786
:103E30000AD4AB4500DA5D4601A8012D04DD411925
:103E400011F8011C302907D04F4502DA17F1040F91
:103E500004DA012082460FE06D1EEEE7002F02DC3F
:103E6000ED1B3E4403E0781CA84200DD7D1CB81B1E
:103E700000F1010A4FF000472078000703D4AA455B
:103E800001DB4FF0FF3A0021B7F1004F0DF143087D
:103E90008DF8431024D002202B23002F01DA7F421B
:103EA0002D230A21021EA0F1010000DC5FB197FB67
:103EB000F1FC97FBF1F201FB1C7C17460CF1300C76
:103EC00008F801CDEEE7A8F101000370218809058B
:103ED00001D5452100E06521A0F1010800F8011C91
:103EE00009980FA9A1EB0807FF1D00B10120411996
:103EF00001EBEA70A1693844081A401EA0612078DD
:103F0000C00602D4204600F03CF9099828B1D4E953
:103F100001219047206A401C20622078C00622D5EB
:103F2000204600F02EF91EE0002E04DBB34502DD32
:103F300001A8805D00E03020D4E901219047206A8B
:103F4000401C2062761CAAF101005FEA000A0AD137
:103F5000FFF79EFDC0680168405CD4E901219047ED
:103F6000206A401C2062281EA5F10105DCDC07E068
:103F7000D4E9012118F8010B9047206A401C206207
:103F8000381EA7F10107F3DC204600F010F90320EA
:103F900011B041E601694A1C02610878704700B51A
:103FA0008FB0CDE901310021059105497944CDE972
:103FB000031011466846FFF79BFA0FB000BD0000E2
:103FC000E5FFFFFF0A6802F8010B0A607047000076
:103FD000074B70B50D467B44FFF7E1FF04462846CA
:103FE00000F016FB10B14FF0FF3070BD204670BDE1
:103FF00027E3FFFF4FF000020429C0F0128010F009
:10400000030C3FF43BABCCF1040CBCF1020F18BF26
:1040100000F8012BA8BF20F8022BA1EB0C01FFF741
:104020002DBB5FEAC17C24BF00F8012B00F8012BF7
:1040300048BF00F8012B704770B50C46016800209E
:104040004A1C3ED03C22B1FBF2F302FB1313B1FB3E
:10405000F2F12360B1FBF2F302FB1313B1FBF2F1B7
:1040600018226360B1FBF2F302FB1313B1FBF2F110
:1040700046F2E0320A440721A360B2FBF1F301FBF0
:10408000132140F2B553B2FBF3F5A161B2FBF3F19A
:1040900003FB15228900B2F5B77F08D39B10521E8F
:1040A000B2FBF3F52944B2FBF3F503FB15220F4BEA
:1040B000E261616189077B440CD03B2A0AD3521C20
:1040C00008E02C212046FFF7D7FA0120E0600AE043
:1040D000521A401C195C9142FAD9521CC4E90320BF
:1040E0004FF0FF302062204670BD0000FA2500002E
:1040F00000487047580F002030B5B0F10A024FEA6F
:10410000900E71F100034EEA817EB0EB0E0061EB80
:1041100091014FEA101E4EEA017E10EB0E0041EBBA
:1041200011114FEA102E4EEA016E10EB0E0041EB1A
:1041300011214FEA104E4EEA014E10EB0E0041EBFA
:104140001141401841F100014FEAD00040EA4170AE
:104150004FEAD10110EB80054FEA810444EA9074E4
:1041600044EB01046D1944EB0404521BA3414FF0CE
:10417000000348BF0A3200D530BD401C41F10001A8
:1041800030BD70B5044685690068C10601D530268A
:1041900000E02026C00707D070BDD4E901213046D9
:1041A0009047206A401C20626D1EF6D570BD70B528
:1041B000044685690078C00707D170BDD4E90121A4
:1041C00020209047206A401C20626D1EF6D570BDED
:1041D00009684A0501D540B27047C905FCD500B24F
:1041E000704709684A0501D5C0B27047C905FCD5BA
:1041F00080B2704770B50C460546012A05D0287874
:10420000800600D5EA69002302E0012305E05B1C7B
:10421000934202D2E05C0028F9D1A869E618C01ADE
:10422000A861286A184428622846FFF7AAFF04E01C
:10423000D5E9012114F8010B9047B442F8D3284680
:10424000FFF7B5FF70BD11680268006A530501D51C
:1042500008700AE0D30501D5088006E0130603D5EF
:10426000C217C1E9000200E00860012070470000A9
:104270002DE9F0411F46044603260168072A01F490
:10428000006004DB08B116A505E016A503E008B13F
:1042900015A500E015A521F010002060A069C01E42
:1042A000A0610FB1401EA0612046FFF76AFF4FB129
:1042B000D4E9012138469047206A401C2062C01C86
:1042C000206206E0206AFAE7D4E9012115F8010B23
:1042D0009047761EF8D22046FFF769FFBDE8F081CF
:1042E0004E414E006E616E00494E4600696E66009A
:1042F0002DE9FF5F15468A460446DFF8AC80F84496
:104300000027D8E900103E46CDE9001010E03AF849
:1043100016106A4602A800F08FFB411C07D02178D6
:10432000890603D5E269391891420DD80744761CF5
:104330002078800602D5E069B84205DDAE42E6DBB2
:104340003AF816000028E2D1A069C01BA0612046FF
:10435000FFF717FFD8E90010CDE90010002017E0A3
:104360003AF818106A4602A800F066FBB0F1FF3F69
:1043700081460BD000250DF1080B05E0D4E90121A1
:104380001BF8050090476D1C4D45F7D308F101005F
:10439000B0428046E4DB206A384420622046FFF7C2
:1043A00006FFBDE8FF9F0000EE2200002DE9F0416E
:1043B0008046D21D22F007020025D2E90002F5292D
:1043C00015A614D0011E72F1000106DA0023D0EB0D
:1043D000030063EB020211A608E0D8F800108B0777
:1043E00001D50FA602E0490701D50EA60125114609
:1043F000002408F1240704E0FFF77EFE30323A552E
:10440000641C50EA0102F7D12B4632462146404651
:10441000BDE8F041FFF756BB000000002D00000092
:104420002B0000002000000030B4002100F1240423
:1044300008E002F00705D208303542EA4372DB0893
:104440006554491C52EA0305F3D10468002310A205
:10445000250707D5A40600D421B1C46901230DA204
:10446000641EC46130BCFFF72DBB10B50446214665
:104470001068FFF7B6FE02462046BDE81040002354
:10448000D2E7D21D22F00701D1E90023CCE70000DA
:104490000000000030000000F0B40D46018809055E
:1044A00002D5214C7C4402E01F4C7C440E34002198
:1044B00000F1240608E002F00F071209E75D42EA66
:1044C00003721B097754491C52EA0307F3D102789F
:1044D0000023120704D5702D06D009B10223113430
:1044E0002246F0BCFFF7EEBA01231034F8E770B5AE
:1044F00004460D4621461068FFF773FE0246294622
:104500002046BDE870400023C6E7D21D22F0070315
:10451000D3E90023C0E70368126843F02003036077
:104520000823C3610023B7E7502100002DE9F047BD
:10453000814616468AB0354878440DC88DE80D008E
:1045400032487844801C03AC0DC884E80D0041F665
:104550009B300844372190FBF1F290FBF1F5A5F177
:10456000800501FB12041B3C02D56442012000E0DF
:104570000020DFF898A080460027FA44AAF1BE0A7E
:104580000EE0E0070AD03246684607EB47010123F8
:104590000AEB810100F013FD8DE8070064107F1C19
:1045A000002CEED1194F7F44AE3F19E0E80715D03B
:1045B00007EB04100DF1180A90E80E008AE80E00CF
:1045C000C068F04201D1981908903246012306A92B
:1045D00003A800F0F4FC03AB83E807006D10641C33
:1045E000002DE3D14FF0010332466946B8F1000FC8
:1045F00003A802D000F0CEFC01E000F0E0FCC9E925
:104600000001C9F808200AB0BDE8F0876021000069
:10461000007B00F0800070474FF0013C50F8042B05
:1046200051F8043B9A4221D1A2EB0C03934313EAC5
:10463000CC1317D150F8042B51F8043B9A4215D1F2
:10464000A2EB0C03934313EACC130BD150F8042BC9
:1046500051F8043B9A4209D1A2EB0C03934313EAAD
:10466000CC13DBD04FF00000704700BFD01A01BA66
:10467000B1FA81F101F0180122FA01F0CB40C1F149
:104680002001DBB2C0B2C01A2CFA01F3D11A914357
:1046900011EAC311E6D170477546FFF729FDAE4612
:1046A00005006946534620F00700854618B020B53E
:1046B000FBF7EAFFBDE820404FF000064FF000078F
:1046C0004FF000084FF0000B21F00701AC46ACE8BA
:1046D000C009ACE8C009ACE8C009ACE8C0098D4627
:1046E000704700002DE9F04F04460D46D21D22F020
:1046F000070089B0D0E900974846394600F096FD9A
:104700000246F80F01D02D2307E02068810701D56C
:104710002B2302E0202101EAC0038DF820300BB1E9
:10472000012000E00020032A824601D0072A04DB92
:1047300029462046FFF79CFD3FE12078800601D402
:104740000D2500E0E569C7F30A560D2D49DA002171
:104750004FEA175B08464FF00000002F00F44000BE
:1047600007DA00EB80004FF4400100EBD07001EA63
:1047700060008115012901DD4FF0FF3100224FEA71
:10478000850CBCF1180F06D31346ACF118004FF09E
:104790008052C24003E04FF4801323FA0CF30CF173
:1047A0000C0CBCF1200F04D3ACF1200C09FA0CF076
:1047B00001E007FA0CF000294FF0004801DD18B9BC
:1047C0000FE00ED140450CD319EB02095F4121B92E
:1047D000404502D19F4329EA0209BBEB175F00D095
:1047E000761C2088000502D57B48784402E07A4890
:1047F0007844193808AA302302F80A30037C0AF1F9
:104800000101002E0AF1020A53546A4602DC4FF0FD
:10481000300101E04FF031014FF001088DF8001038
:1048200002D0A6F2FF3603E059EA470100D06B4EF2
:10483000002D02DC2178090704D54FF002082E2153
:104840008DF80110C44600210BE0C7F303433F017C
:10485000C35C491C6D1E02F80830052908F10108E7
:1048600001DA002DF1DC00210CE000EB1973491C8A
:104870001B786D1E082902F808304FEA091908F163
:10488000010801DA002DF0DC21688B0602D516E064
:10489000A8F10108E04505DD02EB080313F8013C2F
:1048A000302BF5D0B8F1000F09DD02EB080313F847
:1048B000013C2E2B03D1090701D4A8F10108002DDA
:1048C00005DD3E2102F808106D1E08F10108407C4C
:1048D000002E02F8080008F1010804DA2D207642C3
:1048E00002F8080002E02B2002F808000A214FF429
:1048F0007A70864208F101080BDB96FBF0F3303347
:1049000002F8083096FBF0F308F1010800FB13668B
:1049100001E0642E0CDB642096FBF0F3303302F8E8
:10492000083096FBF0F308F1010800FB136601E084
:104930000A2E06DB96FBF1F0303002F8080008F191
:10494000010896FBF1F001FB1060303002F808001E
:10495000A16908F1010808EB050202EB0A00081A38
:10496000A0612078C00602D42046FFF70AFC216A25
:1049700008AE01EB0A00206204E0D4E9012116F838
:10498000010B9047BAF1010AF7D22078C00602D590
:104990002046FFF7F6FB6E4609E016F8010B3E28AD
:1049A0000FD0D4E901219047206A401C2062B8F161
:1049B0000108F2D22046FFF7FAFB09B00320BDE858
:1049C000F08F206A2844206203E0D4E901213020DE
:1049D00090476D1EEBD3F8E7E51E000002FCFFFFD9
:1049E00010B5436913B1AFF3008001E0FFF702FC9B
:1049F000012010BD127800F124010A7000224A70D3
:104A00000122EDE711684FF0FF32E9E710B5436985
:104A100013B1AFF3008001E0FFF76AFC012010BD85
:104A2000128800F1240182840022C2840122EDE771
:104A300011684FF0FF32E9E770B516460C4605469F
:104A400000F024F8036893F80101012806D0FF2C38
:104A50000FD8185D68B101202C7070BDD3F8070124
:104A60003246214603F2071303442846BDE870404E
:104A700018474FF0FF3070BD10B50446AFF300800B
:104A80002046BDE81040FBF7D3BB000010B5FEF791
:104A9000FFFF001D10BD00BF250800005FEA400CAD
:104AA00008BF91F0000F4FEA8C234FEAC12243EA7E
:104AB00051514FEA1C5018BF00F5F0404FEA30004A
:104AC00018BF41F000415FEA6C5C00F02980BCF146
:104AD000FF3F08BF40F080407047130C06BF120430
:104AE0004FF0100C4FF0000C130E04BF12020CF12B
:104AF000080C130F04BF12010CF1040C930F04BF38
:104B000092000CF1020CD30F04BF52000CF1010C07
:104B100011464FF00002A0F11F00A0EB0C007047FF
:104B200011F0004F08BF704731F000413FF4D5AF9E
:104B30000B0C06BF09044FF0100C4FF0000C0B0ECD
:104B400004BF09020CF1080C0B0F04BF09010CF1A2
:104B5000040C8B0F04BF89000CF1020CCB0F04BFB7
:104B600049000CF1010CCCF12003A0EB0C0022FA5F
:104B700003F302FA0CF241EA030100F1010070476D
:104B800020F07F4C80EA030023F07F47ACEB070363
:104B900003F57C5300F0004003F1FF032DE9804949
:104BA0004FEA154B09B44FEA144325EA0B4E24EAA9
:104BB00003480FF2042606EB132749083E785FEA04
:104BC000320203FB0667C7F5000707FB06F64FEA4C
:104BD00054374FEAD64606F1020607FB066CCCF1C5
:104BE000005C4FEA1C472CEA074C07FB06F40CFB61
:104BF00006F504EB15464FEA961634BF00204FF039
:104C000000404FEAD13706FB07FC4FEA1C4C0CFB77
:104C10000BF7D21B03FB0CF761EB07010CFB0EF744
:104C2000B0EB074072EB17420CFB08F734BFA2EB66
:104C30000742B2EB074261EB17414FEA0C444FEADF
:104C4000910706FB07FC4FEA1C4C0CFB0BF7B0EB83
:104C5000C74072EB573203FB0CF734BFA2EBC742DD
:104C6000B2EBC74261EB57310CFB0EF7B0EBC7005C
:104C700072EB57720CFB08F734BFA2EBC702B2EB22
:104C8000C70261EB5771039F4FEA816141EA9211BC
:104C900004EBCC044FEAD1374FEA826206FB07FCF3
:104CA00042EA90124FEA80604FEA1C4C0CFB0BF773
:104CB000D21B03FB0CF761EB07010CFB0EF7B0EB0B
:104CC000074072EB17420CFB08F734BFA2EB074218
:104CD000B2EB074261EB17414FEA8C554FEA91075F
:104CE00004EB9C2406FB07FC4FEA1C4C0CFB0BF767
:104CF000B0EBC74072EB573203FB0CF734BFA2EBAB
:104D0000C742B2EBC74261EB57310CFB0EF7B0EB79
:104D1000C70072EB57720CFB08F734BFA2EBC70257
:104D2000B2EBC70261EB577115EB4C254FEA81617D
:104D300041EA92114FEA82624FEAD13742EA901279
:104D400006FB07FC44F100044FEA80604FEA1C4C6C
:104D50000CFB0BF7D21B03FB0CF761EB07010CFB01
:104D60000EF7B0EB074072EB17420CFB08F734BFAD
:104D7000A2EB0742B2EB074261EB174115EB1C15A2
:104D80004FEA813141EA92414FEA823242EA90424F
:104D90004FEA80304FEA0C7644F1000448EA0343BE
:104DA0004EEA0B484FF0000EB2EB080C71EB030714
:104DB00024BF624639464EEB0E0E4FF0000B001832
:104DC000524149414BEB0B0BB2EB080C71EB030763
:104DD0007BF1000B24BF624639464EEB0E0E4FF0BE
:104DE000000B0018524149414BEB0B0BB2EB080C86
:104DF00071EB03077BF1000B24BF624639464EEB93
:104E00000E0E51EA020718BF46F0010616EB0E76A9
:104E100055F1000254F1000103D5BDE88901BDE858
:104E20000088BDE88901BDE80048B619524141EB50
:104E30000101A3F10103704780807F7E7D7C7B7A36
:104E40007978777676757473727171706F6E6E6D36
:104E50006C6C6B6A6A6968686766666564646363DC
:104E600062616160605F5F5E5E5D5D5C5C5B5B5A62
:104E70005A595958585757565655555554545353CF
:104E800052525251515050504F4F4F4E4E4D4D4D2A
:104E90004C4C4C4B4B4B4A4A4A4949494848484775
:104EA00047474746464645454544444444434343B3
:104EB0004342424242414141002B9C4630D477005C
:104EC0002BD01CB54FEA370703B44FF010004FF05A
:104ED0001001BAF1000F06D0BCF1000FDCBF40F0AA
:104EE000080040F008014FF000000FBCBDE8104082
:104EF0000BF1010BBBF1010F08BF5FEA170722BFDF
:104F000012F1010211F101014FF0004143F10003E0
:104F100000F0004043EA00007047F9D35708D0E79B
:104F200046EA064613F1400F4FEA16461FDD13F11D
:104F3000200FDFBF16430A46002120335B42BED05C
:104F4000C3F1200746EA064602FA07F74FEA16467B
:104F500046EA0706C3F1200722FA03F201FA07F72F
:104F600021FA03F14FF0000342EA0702A7E746EAFD
:104F7000020646EA06464FEA164646EA0106BCBF66
:104F800046EA0646360C4FF000034FF000024FF0A1
:104F9000000194E72DE9804C9A46934670B491E85D
:104FA000380007C831EA400C48BF34EA430C03D547
:104FB000FFF7E6FDFFF780FFF0BCBDE8008C2DE9B0
:104FC000804C9A46934670B491E8380007C810F0B8
:104FD000804F08BF13F0804F03D100F005F8FFF7B2
:104FE0006BFFF0BCBDE8008C20F07F4780EA030037
:104FF00023F07F4C07EB0C03A3F57C5300F000403B
:10500000A3F1FE0392F0000F00F0B38095F0000FC3
:1050100000F077802DE901494FEA11404FEA14462C
:1050200021EA004800FB06FC24EA064708FB06F6D6
:1050300007FB08F800FB07F718EB06484CEB164C8B
:105040004FEA124B18EB07484FEA15464CEB174056
:1050500022EA0B4E0BFB06FC25EA06470EFB06F682
:1050600007FB0EFE0BFB07F71EEB064E4CEB164C38
:105070004FF000061EEB074E4CEB174B18EB0B08DE
:1050800040F1000018EB0E0B58EB000840F1000057
:105090008F1A4FF000013CBFC943661B14BFB5EB2C
:1050A000040C00213CBFC943F61B4FEA17444EEAEB
:1050B0008E0E27EA04454FEA1C4704FB07622CEAE0
:1050C000074C05FB07F70CFB05F604FB0CFC16EB85
:1050D000074642EB174216EB0C4642EB1C421BEB19
:1050E000060658EB0202414146EA9E0601D5BDE89C
:1050F0000189B619524141EB0101A3F10103BDE859
:1051000001894FEA14454FEA114724EA054621EA8E
:10511000074C05FB07F406FB07F70CFB06F105FB44
:105120000CFC11EB074144EB17444FEA124711EB1B
:105130000C4144EB1C4422EA074C05FB07F206FB3A
:1051400007F70CFB06F605FB0CFC16EB074642EBDB
:10515000174216EB0C4642EB1C456A1854F100014D
:1051600048BF7047B619524141EB0101A3F1010359
:10517000704795F0000F37D04FEA11424FEA1447BD
:1051800021EA024624EA074C02FB07F106FB07F777
:105190000CFB06F402FB0CFC14EB074441EB17413B
:1051A0004FEA154714EB0C4441EB1C4125EA074C30
:1051B00002FB07F506FB07F70CFB06F602FB0CFCEF
:1051C00016EB074645EB174516EB0C4645EB1C4224
:1051D000121951F1000148BF7047B619524141EB15
:1051E0000101A3F1010370474FEA14454FEA11474B
:1051F00024EA054621EA074C05FB07F106FB07F701
:105200000CFB06F24FF0000605FB0CFC12EB07420C
:1052100041EB174112EB0C4251EB1C4148BF704768
:10522000921841EB0101A3F101037047490050EAD4
:10523000C12018BF04204A0D18BF40F0010040F201
:10524000FF72B2EB515F08BF40F00200012808BFB7
:105250000520704730380A2801D20120704700200D
:105260007047000010B500290AD00878002807D040
:1052700005487844FFF7D0F9002801D0002010BD80
:105280000248784410BD0000961400008E140000FF
:1052900010B500290AD00878002807D005487844BE
:1052A000FFF7BAF9002801D0002010BD0248784469
:1052B00010BD0000EA150000E215000010B500293D
:1052C0000AD00878002807D005487844FFF7A4F9E9
:1052D000002801D0002010BD0248784410BD000015
:1052E000DA150000D215000021F00042A2F1605250
:1052F000B2F5801F01F0004328BFD2F17F6C0BD9BB
:105300005FEA001C43EAC20242EB507018BF7047CC
:1053100028BF20F001007047B2F5801FBCBF1846BF
:1053200070474FEA410C1CF5001F02D2084600F0FE
:10533000F0BC70B500F0C8FA00000089FFF7F6BFB6
:105340004FF00040A0F580007047000010B591EAD2
:10535000030F48BF83F0004300F11283841A71EBFE
:10536000030C05D2121943EB0C03001B61EB0C017B
:10537000DFF824E14FEA1154A4EB135C1EEA430F5B
:1053800018BF9EEA445F73D023EA0E03DCF1200EBF
:1053900021EA045143F4801332D322FA0CFE10EBBD
:1053A0000E0023FA0CFE41EB0E01CCF1200E03FAA5
:1053B0000EFE10EB0E0051F10001B1F5801FCCF193
:1053C000200E32D201EB045112FA0EF2BDE8104069
:1053D00058BF7047401C38BF5FEA420218BF704791
:1053E000002814BF20F0010041F100014FEA410301
:1053F00013F5001F38BF7047A1F1C04100F0B2BAE9
:10540000012A43EB0302ACF1200CDCF11F0E32BF8A
:105410004FF0000E23FA0CF310EB030041EB0451A4
:10542000B4EB115FD0D0A1EB045101F58011490814
:105430005FEA300001EB04510ED350F1000038BF99
:1054400012FA0EFE08D1BDE81040C9E7401C38BF73
:105450005FEA4202CAD1C3E7BDE810404FEA410308
:1054600013F5001F38BF7047A1F1C04100F07ABAB0
:105470009EEA445F08D011EA5E0FBDE8104004BF09
:1054800001F0004100207047BDE8104070B500F009
:105490001BFA00BF64FBBE3E0000E0FF2DE9C041E7
:1054A00030B4DFF8A0C23CEA111418BF3CEA131470
:1054B00000F0EC8081EA03051CEA111444EAD5747B
:1054C00018BF1CEA131500F0C780A4EB05044FF0C9
:1054D000004545EAC12145EAC32341EA505143EA68
:1054E000525304F17F74994204F500344FEAC0200E
:1054F0004FEAC22208BF904200F09C804FEA136539
:105500000FF24016765D4FEA134506FB05F7C7F12B
:10551000807706FB07F74FEAD737A7FB0368764289
:10552000C8F58038A7FB06CE38BFA8F1010807FBF5
:1055300008E64FF0000EA6FB028CE6FB03CEDCF182
:10554000000CCEF1004E38BFAEF1010EA6FB0C5898
:105550004FF000074FF00005E6FB0E87A1FB08C6E1
:10556000A0FB07CE16EB0E0645F10005E1FB076533
:1055700015F1E04E7EBFA4F580345FEA46066D412A
:1055800016F1800745F100054FEA17274FEA066636
:1055900047EA0567A6F1DE46B6F1805F4FEA1525BA
:1055A0001FD9384624F0010C05EBC471BCF1FE6F25
:1055B00001EB0C1102D8F0BCBDE8008124425CBFB5
:1055C00001F5801E9EEAC47F02D4F0BCBDE80081D4
:1055D000244238D4F0BCA1F1C041BDE8004100F044
:1055E000C1B94FEAD22242EA43524FEAD323A7FB82
:1055F00002864FEAD02040EA415007FB03661EEACC
:105600000E0F4FEAD12105FB026658BFA6EB0056EC
:10561000B6EB00564FEA520E4EEAC37E18EB0E0E62
:1056200056EB530EBDD518EB02085E417F1C55F1B9
:105630000005B6E74FF480154FF000074FF0000665
:105640004FF00008ADE7F0BC4FF0000001F1C041A1
:1056500001F00041BDE8008111EA0C1F0CEA1315AE
:1056600000D00CE013EA0C1F00F025804FF0000082
:10567000F0BC81EA030101F00041BDE80081F0BC0B
:10568000BDE8004181EA030100F06CB9F0BCBDE85F
:10569000004170B500F018F9097EFC3E00F007B833
:1056A00081EA03014FF0000001F00041704781EAF8
:1056B000030100F057B9F0BCBDE800414FF0000015
:1056C00021497047FFFDFBF9F7F5F4F2F0EEEDEB41
:1056D000E9E8E6E4E3E1E0DEDDDBDAD8D7D5D4D3F0
:1056E000D1D0CFCDCCCBCAC8C7C6C5C4C2C1C0BF3C
:1056F000BEBDBCBBBAB9B8B7B6B5B4B3B2B1B0AF42
:10570000AEADACABAAA9A8A8A7A6A5A4A3A3A2A125
:10571000A09F9F9E9D9C9C9B9A99999897979695E0
:1057200095949393929191908F8F8E8E8D8C8C8B7C
:105730008B8A898988888787868585848483838204
:10574000828181800000FF070000F87FB0FA80F3BB
:1057500010FA03F10AD0C3F11D0303F580634FEA89
:1057600041504FEA035202EBD12170474FF0000045
:1057700070470000DFF848C170B51CEA111E1EBF5B
:105780001CEA13159EEA0C0F95EA0C0F00F06F80CF
:1057900081EA030423EA4C134EEAD47E21EA4C1139
:1057A00041F4801143F48013AE44A1FB024CA0FBF2
:1057B0000365AEF17F7E361955EB0C05A1FB034C5A
:1057C0004CF10003A0FB021C16EB0C06654153F1E3
:1057D0000003094218BF46F0010613F4007F0BD105
:1057E0004FEA03314FEA0530340341EA155140EAEC
:1057F00016506FF003020AE04FEAC3214FEAC520BA
:10580000F40241EA555140EA56506FF0020202EBB1
:105810002E4201EB025585EACE710AD05FEA440CB4
:1058200018BF24F0004450F1000041F1000120EACB
:10583000D47040F2FE7C624500D270BDA84214BF15
:105840004FF080444FF04044002E08BF0024BEF1CA
:10585000806FA8BFA1F1C041BDE8704080F2828096
:105860004FF0000001F1C04101F0004170479EEA95
:105870000C0F0CEA131518BF95EA0C0F06D04FF069
:10588000000081EA030E0EF0004170BD00F01CF82C
:105890008900013E00F007B800F009B84FEA430C58
:1058A0005FEA5C5C08D081EA030100F05BB84FEA74
:1058B000410C5FEA5C5CF6D14FF000000149704793
:1058C0000000FF070000F87F0EF1020E2EF0030E1D
:1058D0005EF8046B364205D4012A43EB030515F547
:1058E000001F12D8012841EB010C1CF5001F0CD839
:1058F0000ED14FEAD17C15F5001F0CEB4C0C0CF1CE
:10590000020C08BF4CEBD37C04E04FF0080C01E024
:105910004FEAD37C0CEB4C0526FA05F606F0070699
:10592000B6F1040C06D20EEB860CBDE870404CF0CC
:10593000010C6047DFE80CF0090B02024FF0004158
:105940004FF00000A1F5002170BD19461046012856
:1059500051EB010418BFD4F5001484BF002001F0FE
:10596000004170BD0808A0F500114FEA31017047F1
:1059700010B591EA030F48BF83F000433FF5EEAC4A
:10598000841A71EB030C07D212198CF0004C43EB14
:105990000C03001B61EB0C01DFF8A4E14FEA11548A
:1059A000A4EB135C1EEA430F18BF9EEA445F00F0AD
:1059B000B08023EA6E03524221EA0451C3EB6E0326
:1059C00038BF5B1EDCF1200E25D322FA0CFE10EB53
:1059D0000E0043FA0CFE41EB0E01CCF1200E03FA4F
:1059E0000EFE10EB0E0051F10001CCF1200E29D477
:1059F00012FA0EF201EB0451BDE8104058BF704797
:105A0000401C1CBFB2F1004F704700280CBF491C5E
:105A100020F00100704712EB020E43EB030218BFA7
:105A20004FF0010E4EEA4202ACF1200CDCF11E0EEA
:105A300054D943FA0CFE10EB0E0051F1FF31CCF1BA
:105A40001E0ED5D50EF1010E12FA0EFE404141EBAD
:105A5000010101EB445C5FEA5C5C10D910EBDE7085
:105A600001EB045138BFBEF1004FBDE8104018BF34
:105A7000704700280CBF491C20F00100704730D24D
:105A80004FEAD42C11F5001124F400641BD0B1FAB4
:105A900081F20B3AA41AA41ED2F12003914030FAED
:105AA00003F31943904001EBCC71002C01EB04513E
:105AB000BDE81040A8BF704701F1C0414FF00000A1
:105AC00001F000417047B0FA80F310FA03F100D101
:105AD00010BDE41A173C4805C90AE4E701EB04517C
